{
  "contractName": "Monster",
  "abi": [
    {
      "inputs": [],
      "payable": false,
      "stateMutability": "nonpayable",
      "type": "constructor"
    },
    {
      "constant": true,
      "inputs": [
        {
          "internalType": "uint256",
          "name": "",
          "type": "uint256"
        }
      ],
      "name": "monsterNames",
      "outputs": [
        {
          "internalType": "string",
          "name": "",
          "type": "string"
        }
      ],
      "payable": false,
      "stateMutability": "view",
      "type": "function"
    },
    {
      "constant": true,
      "inputs": [
        {
          "internalType": "uint256",
          "name": "",
          "type": "uint256"
        }
      ],
      "name": "monsters",
      "outputs": [
        {
          "internalType": "uint256",
          "name": "id",
          "type": "uint256"
        },
        {
          "internalType": "string",
          "name": "name",
          "type": "string"
        },
        {
          "internalType": "uint256",
          "name": "age",
          "type": "uint256"
        }
      ],
      "payable": false,
      "stateMutability": "view",
      "type": "function"
    },
    {
      "constant": true,
      "inputs": [],
      "name": "monstersCount",
      "outputs": [
        {
          "internalType": "uint256",
          "name": "",
          "type": "uint256"
        }
      ],
      "payable": false,
      "stateMutability": "view",
      "type": "function"
    }
  ],
  "bytecode": "0x60806040526040518061010001604052806040518060400160405280600981526020017f42756c626173617572000000000000000000000000000000000000000000000081525081526020016040518060400160405280600a81526020017f436861726d616e6465720000000000000000000000000000000000000000000081525081526020016040518060400160405280600881526020017f5371756972746c6500000000000000000000000000000000000000000000000081525081526020016040518060400160405280600781526020017f50696b616368750000000000000000000000000000000000000000000000000081525081526020016040518060400160405280600881526020017f436174657270696500000000000000000000000000000000000000000000000081525081526020016040518060400160405280600681526020017f576565646c65000000000000000000000000000000000000000000000000000081525081526020016040518060400160405280600681526020017f506964676579000000000000000000000000000000000000000000000000000081525081526020016040518060400160405280600781526020017f526174746174610000000000000000000000000000000000000000000000000081525081525060029060086101f6929190610363565b5034801561020357600080fd5b5060008090505b6002805490508110156102e2576102d56002828154811061022757fe5b906000526020600020018054600181600116156101000203166002900480601f0160208091040260200160405190810160405280929190818152602001828054600181600116156101000203166002900480156102c55780601f1061029a576101008083540402835291602001916102c5565b820191906000526020600020905b8154815290600101906020018083116102a857829003601f168201915b50505050506102e860201b60201c565b808060010191505061020a565b506104dc565b60016000815480929190600101919050555060405180606001604052806001548152602001828152602001600081525060008060015481526020019081526020016000206000820151816000015560208201518160010190805190602001906103529291906103c3565b506040820151816002015590505050565b8280548282559060005260206000209081019282156103b2579160200282015b828111156103b15782518290805190602001906103a19291906103c3565b5091602001919060010190610383565b5b5090506103bf9190610443565b5090565b828054600181600116156101000203166002900490600052602060002090601f016020900481019282601f1061040457805160ff1916838001178555610432565b82800160010185558215610432579182015b82811115610431578251825591602001919060010190610416565b5b50905061043f919061046f565b5090565b61046c91905b80821115610468576000818161045f9190610494565b50600101610449565b5090565b90565b61049191905b8082111561048d576000816000905550600101610475565b5090565b90565b50805460018160011615610100020316600290046000825580601f106104ba57506104d9565b601f0160209004906000526020600020908101906104d8919061046f565b5b50565b610376806104eb6000396000f3fe608060405234801561001057600080fd5b50600436106100415760003560e01c80636368f5b31461004657806387e0712e146100ed578063c0576b731461010b575b600080fd5b6100726004803603602081101561005c57600080fd5b81019080803590602001909291905050506101c0565b6040518080602001828103825283818151815260200191508051906020019080838360005b838110156100b2578082015181840152602081019050610097565b50505050905090810190601f1680156100df5780820380516001836020036101000a031916815260200191505b509250505060405180910390f35b6100f5610279565b6040518082815260200191505060405180910390f35b6101376004803603602081101561012157600080fd5b810190808035906020019092919050505061027f565b6040518084815260200180602001838152602001828103825284818151815260200191508051906020019080838360005b83811015610183578082015181840152602081019050610168565b50505050905090810190601f1680156101b05780820380516001836020036101000a031916815260200191505b5094505050505060405180910390f35b600281815481106101cd57fe5b906000526020600020016000915090508054600181600116156101000203166002900480601f0160208091040260200160405190810160405280929190818152602001828054600181600116156101000203166002900480156102715780601f1061024657610100808354040283529160200191610271565b820191906000526020600020905b81548152906001019060200180831161025457829003601f168201915b505050505081565b60015481565b6000602052806000526040600020600091509050806000015490806001018054600181600116156101000203166002900480601f0160208091040260200160405190810160405280929190818152602001828054600181600116156101000203166002900480156103315780601f1061030657610100808354040283529160200191610331565b820191906000526020600020905b81548152906001019060200180831161031457829003601f168201915b505050505090806002015490508356fea265627a7a72315820678b0b716641511ca1af256e175914bf7a8b6dfeeed39cba5289f4e95349989c64736f6c63430005100032",
  "source": "pragma solidity >=0.4.22 <0.8.0;\n\ncontract Monster {\n    // Model a Monster\n    struct Monster {\n        uint id;\n        string name;\n        uint age;\n    }\n\n    // Read/write monsters\n    mapping(uint => Monster) public monsters;\n\n    // Store Monsters Count\n    uint public monstersCount;\n\n    string[] public monsterNames = [\n        \"Bulbasaur\",\n        \"Charmander\",\n        \"Squirtle\",\n        \"Pikachu\",\n        \"Caterpie\",\n        \"Weedle\",\n        \"Pidgey\",\n        \"Rattata\"\n    ];\n\n    constructor () public {\n        for(uint i = 0 ; i < monsterNames.length ; i++){\n            addMonster(monsterNames[i]);\n        }\n    }\n\n    function addMonster (string memory _name) private {\n        monstersCount ++;\n        monsters[monstersCount] = Monster(monstersCount, _name, 0);\n    }\n}",
  "sourcePath": "/Users/asfwan/Workspaces/workspace-blockchain/election/contracts/Monster.sol",
  "compiler": {
    "name": "solc",
    "version": "0.5.16+commit.9c3226ce.Emscripten.clang"
  },
  "schemaVersion": "3.4.3",
  "updatedAt": "2021-09-15T00:56:52.003Z",
  "networkType": "ethereum",
  "devdoc": {
    "methods": {}
  },
  "userdoc": {
    "methods": {}
  }
}