{
  "contractName": "MonsterContract",
  "abi": [
    {
      "inputs": [],
      "payable": false,
      "stateMutability": "nonpayable",
      "type": "constructor"
    },
    {
      "constant": true,
      "inputs": [
        {
          "internalType": "uint256",
          "name": "",
          "type": "uint256"
        }
      ],
      "name": "monsterNames",
      "outputs": [
        {
          "internalType": "string",
          "name": "",
          "type": "string"
        }
      ],
      "payable": false,
      "stateMutability": "view",
      "type": "function"
    },
    {
      "constant": true,
      "inputs": [
        {
          "internalType": "uint256",
          "name": "",
          "type": "uint256"
        }
      ],
      "name": "monsters",
      "outputs": [
        {
          "internalType": "uint256",
          "name": "id",
          "type": "uint256"
        },
        {
          "internalType": "string",
          "name": "name",
          "type": "string"
        },
        {
          "internalType": "uint256",
          "name": "age",
          "type": "uint256"
        },
        {
          "internalType": "enum MonsterContract.ElementType",
          "name": "elementType",
          "type": "uint8"
        },
        {
          "internalType": "uint256",
          "name": "level",
          "type": "uint256"
        },
        {
          "internalType": "uint256",
          "name": "attack",
          "type": "uint256"
        },
        {
          "internalType": "uint256",
          "name": "defense",
          "type": "uint256"
        },
        {
          "internalType": "uint256",
          "name": "agility",
          "type": "uint256"
        },
        {
          "internalType": "uint256",
          "name": "dexterity",
          "type": "uint256"
        }
      ],
      "payable": false,
      "stateMutability": "view",
      "type": "function"
    },
    {
      "constant": true,
      "inputs": [],
      "name": "monstersCount",
      "outputs": [
        {
          "internalType": "uint256",
          "name": "",
          "type": "uint256"
        }
      ],
      "payable": false,
      "stateMutability": "view",
      "type": "function"
    }
  ],
  "bytecode": "0x60806040526040518061010001604052806040518060400160405280600a81526020017f42756c626173617572610000000000000000000000000000000000000000000081525081526020016040518060400160405280600b81526020017f436861726d616e6465726100000000000000000000000000000000000000000081525081526020016040518060400160405280600981526020017f5371756972746c6561000000000000000000000000000000000000000000000081525081526020016040518060400160405280600881526020017f50696b616368756100000000000000000000000000000000000000000000000081525081526020016040518060400160405280600981526020017f436174657270696561000000000000000000000000000000000000000000000081525081526020016040518060400160405280600781526020017f576565646c65610000000000000000000000000000000000000000000000000081525081526020016040518060400160405280600781526020017f506964676579610000000000000000000000000000000000000000000000000081525081526020016040518060400160405280600881526020017f52617474617461610000000000000000000000000000000000000000000000008152508152506002906008620001f89291906200081e565b503480156200020657600080fd5b5060008090505b600280549050811015620002ee57620002e0600282815481106200022d57fe5b906000526020600020018054600181600116156101000203166002900480601f016020809104026020016040519081016040528092919081815260200182805460018160011615610100020316600290048015620002cf5780601f10620002a357610100808354040283529160200191620002cf565b820191906000526020600020905b815481529060010190602001808311620002b157829003601f168201915b5050505050620002f560201b60201c565b80806001019150506200020d565b5062000ab0565b6000600490506200030562000885565b6040518060600160405280600360058111156200031e57fe5b60058111156200032a57fe5b81526020016005808111156200033c57fe5b60058111156200034857fe5b8152602001600060058111156200035b57fe5b60058111156200036757fe5b81525090506200037662000885565b6200038783620004da60201b60201c565b9050604051806101600160405280600154815260200185815260200160008152602001846005811115620003b757fe5b815260200160018152602001600b8152602001600681526020016002815260200160028152602001838152602001828152506000806001600081548092919060010191905055815260200190815260200160002060008201518160000155602082015181600101908051906020019062000433929190620008a7565b506040820151816002015560608201518160030160006101000a81548160ff021916908360058111156200046357fe5b02179055506080820151816004015560a0820151816005015560c0820151816006015560e08201518160070155610100820151816008015561012082015181600901906003620004b59291906200092e565b5061014082015181600a01906003620004d09291906200092e565b5090505050505050565b620004e462000885565b60026005811115620004f257fe5b826005811115620004ff57fe5b141562000573576040518060600160405280600360058111156200051f57fe5b60058111156200052b57fe5b81526020016005808111156200053d57fe5b60058111156200054957fe5b8152602001600060058111156200055c57fe5b60058111156200056857fe5b815250905062000819565b600360058111156200058157fe5b8260058111156200058e57fe5b14156200060357604051806060016040528060046005811115620005ae57fe5b6005811115620005ba57fe5b815260200160016005811115620005cd57fe5b6005811115620005d957fe5b815260200160006005811115620005ec57fe5b6005811115620005f857fe5b815250905062000819565b600160058111156200061157fe5b8260058111156200061e57fe5b141562000692576040518060600160405280600260058111156200063e57fe5b60058111156200064a57fe5b81526020016005808111156200065c57fe5b60058111156200066857fe5b8152602001600060058111156200067b57fe5b60058111156200068757fe5b815250905062000819565b6005808111156200069f57fe5b826005811115620006ac57fe5b14156200072157604051806060016040528060036005811115620006cc57fe5b6005811115620006d857fe5b815260200160016005811115620006eb57fe5b6005811115620006f757fe5b8152602001600060058111156200070a57fe5b60058111156200071657fe5b815250905062000819565b600460058111156200072f57fe5b8260058111156200073c57fe5b1415620007b05760405180606001604052806005808111156200075b57fe5b60058111156200076757fe5b8152602001600060058111156200077a57fe5b60058111156200078657fe5b8152602001600060058111156200079957fe5b6005811115620007a557fe5b815250905062000819565b604051806060016040528060006005811115620007c957fe5b6005811115620007d557fe5b815260200160006005811115620007e857fe5b6005811115620007f457fe5b8152602001600060058111156200080757fe5b60058111156200081357fe5b81525090505b919050565b82805482825590600052602060002090810192821562000872579160200282015b828111156200087157825182908051906020019062000860929190620008a7565b50916020019190600101906200083f565b5b509050620008819190620009d8565b5090565b6040518060600160405280600390602082028038833980820191505090505090565b828054600181600116156101000203166002900490600052602060002090601f016020900481019282601f10620008ea57805160ff19168380011785556200091b565b828001600101855582156200091b579182015b828111156200091a578251825591602001919060010190620008fd565b5b5090506200092a919062000a09565b5090565b826003601f01602090048101928215620009c55791602002820160005b838211156200099457835183826101000a81548160ff021916908360058111156200097257fe5b021790555092602001926001016020816000010492830192600103026200094b565b8015620009c35782816101000a81549060ff021916905560010160208160000104928301926001030262000994565b505b509050620009d4919062000a31565b5090565b62000a0691905b8082111562000a025760008181620009f8919062000a64565b50600101620009df565b5090565b90565b62000a2e91905b8082111562000a2a57600081600090555060010162000a10565b5090565b90565b62000a6191905b8082111562000a5d57600081816101000a81549060ff02191690555060010162000a38565b5090565b90565b50805460018160011615610100020316600290046000825580601f1062000a8c575062000aad565b601f01602090049060005260206000209081019062000aac919062000a09565b5b50565b6103df8062000ac06000396000f3fe608060405234801561001057600080fd5b50600436106100415760003560e01c80636368f5b31461004657806387e0712e146100ed578063c0576b731461010b575b600080fd5b6100726004803603602081101561005c57600080fd5b81019080803590602001909291905050506101f8565b6040518080602001828103825283818151815260200191508051906020019080838360005b838110156100b2578082015181840152602081019050610097565b50505050905090810190601f1680156100df5780820380516001836020036101000a031916815260200191505b509250505060405180910390f35b6100f56102b1565b6040518082815260200191505060405180910390f35b6101376004803603602081101561012157600080fd5b81019080803590602001909291905050506102b7565b604051808a81526020018060200189815260200188600581111561015757fe5b60ff16815260200187815260200186815260200185815260200184815260200183815260200182810382528a818151815260200191508051906020019080838360005b838110156101b557808201518184015260208101905061019a565b50505050905090810190601f1680156101e25780820380516001836020036101000a031916815260200191505b509a505050505050505050505060405180910390f35b6002818154811061020557fe5b906000526020600020016000915090508054600181600116156101000203166002900480601f0160208091040260200160405190810160405280929190818152602001828054600181600116156101000203166002900480156102a95780601f1061027e576101008083540402835291602001916102a9565b820191906000526020600020905b81548152906001019060200180831161028c57829003601f168201915b505050505081565b60015481565b6000602052806000526040600020600091509050806000015490806001018054600181600116156101000203166002900480601f0160208091040260200160405190810160405280929190818152602001828054600181600116156101000203166002900480156103695780601f1061033e57610100808354040283529160200191610369565b820191906000526020600020905b81548152906001019060200180831161034c57829003601f168201915b5050505050908060020154908060030160009054906101000a900460ff1690806004015490806005015490806006015490806007015490806008015490508956fea265627a7a72315820cab7022fe3e2e725d4f3dd2bd013f2483ad3e7eee18bb307aed4c6cc9f9798a264736f6c63430005100032",
  "source": "pragma solidity >=0.4.22 <0.8.0;\n\ncontract MonsterContract {\n    // Model a Monster\n    struct Monster {\n        uint id;\n        string name;\n        uint age;\n\n        // common stats\n        ElementType elementType;\n        uint level;\n\n        // extended stats\n        uint attack;\n        uint defense;\n        uint agility;\n        uint dexterity;\n        ElementType[3] strengths;\n        ElementType[3] weaknesses;\n    }\n\n    // Read/write monsters\n    mapping(uint => Monster) public monsters;\n\n    // Store Monsters Count\n    uint public monstersCount;\n\n    string[] public monsterNames = [\n        \"Bulbasaura\",\n        \"Charmandera\",\n        \"Squirtlea\",\n        \"Pikachua\",\n        \"Caterpiea\",\n        \"Weedlea\",\n        \"Pidgeya\",\n        \"Rattataa\"\n    ];\n\n    enum ElementType{ VOID, GRASS, FIRE, WATER, ELECTRIC, EARTH }\n\n    constructor () public {\n        for(uint i = 0 ; i < monsterNames.length ; i++){\n            addMonster(monsterNames[i]);\n        }\n    }\n\n    function addMonster (string memory _name) private {\n        ElementType elementType = ElementType.ELECTRIC;\n        ElementType[3] memory strengths = [(ElementType.WATER), (ElementType.EARTH), (ElementType.VOID)];\n        ElementType[3] memory weaknesses = getWeaknesses(elementType);\n        monsters[monstersCount ++] = \n            Monster(\n                monstersCount,          // id\n                _name,                   // name\n                0,                      // age\n                elementType,   // elementType\n                1,                      // level\n                11,                     // attack\n                6,                      // defense\n                2,                      // agility\n                2,                      // dexterity\n                strengths,              // strengths\n                weaknesses              // weaknesses\n            );\n    }\n\n    function getWeaknesses (ElementType elementType) private returns (ElementType[3] memory) {\n        if(elementType == ElementType.FIRE){\n            return [ElementType.WATER, ElementType.EARTH, ElementType.VOID];\n        }else if(elementType == ElementType.WATER){\n            return [ElementType.ELECTRIC, ElementType.GRASS, ElementType.VOID];\n        }else if(elementType == ElementType.GRASS){\n            return [ElementType.FIRE, ElementType.EARTH, ElementType.VOID];\n        }else if(elementType == ElementType.EARTH){\n            return [ElementType.WATER, ElementType.GRASS, ElementType.VOID];\n        }else if(elementType == ElementType.ELECTRIC){\n            return [ElementType.EARTH, ElementType.VOID, ElementType.VOID];\n        }else{\n            return [ElementType.VOID, ElementType.VOID, ElementType.VOID];\n        }\n    }\n}",
  "sourcePath": "/Users/asfwan/Workspaces/workspace-blockchain/election/contracts/MonsterContract.sol",
  "compiler": {
    "name": "solc",
    "version": "0.5.16+commit.9c3226ce.Emscripten.clang"
  },
  "schemaVersion": "3.4.3",
  "updatedAt": "2021-09-15T13:46:09.894Z",
  "devdoc": {
    "methods": {}
  },
  "userdoc": {
    "methods": {}
  }
}