{
  "contractName": "Purchase",
  "abi": [
    {
      "constant": true,
      "inputs": [
        {
          "internalType": "uint256",
          "name": "",
          "type": "uint256"
        }
      ],
      "name": "purchasers",
      "outputs": [
        {
          "internalType": "address",
          "name": "",
          "type": "address"
        }
      ],
      "payable": false,
      "stateMutability": "view",
      "type": "function"
    },
    {
      "constant": false,
      "inputs": [
        {
          "internalType": "uint256",
          "name": "konflixId",
          "type": "uint256"
        }
      ],
      "name": "purchase",
      "outputs": [
        {
          "internalType": "uint256",
          "name": "",
          "type": "uint256"
        }
      ],
      "payable": false,
      "stateMutability": "nonpayable",
      "type": "function"
    },
    {
      "constant": true,
      "inputs": [],
      "name": "getPurchasers",
      "outputs": [
        {
          "internalType": "address[16]",
          "name": "",
          "type": "address[16]"
        }
      ],
      "payable": false,
      "stateMutability": "view",
      "type": "function"
    }
  ],
  "bytecode": "0x608060405234801561001057600080fd5b506101e7806100206000396000f3fe608060405234801561001057600080fd5b50600436106100415760003560e01c80630409eb851461004657806312923b6514610087578063efef39a1146100c0575b600080fd5b61004e6100ef565b604051808261020080838360005b8381101561007457818101518382015260200161005c565b5050505090500191505060405180910390f35b6100a46004803603602081101561009d57600080fd5b5035610135565b604080516001600160a01b039092168252519081900360200190f35b6100dd600480360360208110156100d657600080fd5b5035610152565b60408051918252519081900360200190f35b6100f7610193565b604080516102008101918290529060009060109082845b81546001600160a01b0316815260019091019060200180831161010e575050505050905090565b6000816010811061014257fe5b01546001600160a01b0316905081565b6000600f82111561016257600080fd5b336000836010811061017057fe5b0180546001600160a01b0319166001600160a01b03929092169190911790555090565b604051806102000160405280601090602082028038833950919291505056fea265627a7a723158203d10f01391ef0310095b2a221144406ef92667301bf98c3c7fee0f6f0aecfdae64736f6c634300050f0032",
  "source": "pragma solidity >=0.4.22 <0.8.8;\n\ncontract Purchase {\n    address[16] public purchasers;\n\n    // Adopting a pet\n    function purchase(uint konflixId) public returns (uint) {\n        require(konflixId >= 0 && konflixId <= 15);\n\n        purchasers[konflixId] = msg.sender;\n\n        return konflixId;\n    }\n\n    // Retrieving the purchasers\n    function getPurchasers() public view returns (address[16] memory) {\n        return purchasers;\n    }\n}",
  "sourcePath": "/Users/asfwan/Workspaces/workspace-blockchain/election/contracts/Purchase.sol",
  "compiler": {
    "name": "solc",
    "version": "0.5.15+commit.6a57276f.Emscripten.clang"
  },
  "schemaVersion": "3.4.3",
  "updatedAt": "2021-09-16T09:34:48.187Z",
  "networkType": "ethereum",
  "devdoc": {
    "methods": {}
  },
  "userdoc": {
    "methods": {}
  }
}